:020000040800F2
:10000000E007002099010008C723000849210008E3
:10001000C5230008ED050008C928000800000000FD
:10002000000000000000000000000000CB230008DA
:10003000D906000800000000C9230008CD230008ED
:10004000B3010008B3010008B3010008B3010008C0
:10005000B3010008B3010008B3010008B3010008B0
:10006000DB060008E1060008E7060008B301000807
:10007000B3010008B3010008B3010008B301000890
:10008000B3010008B3010008B3010008B301000880
:10009000B3010008B3010008B3010008ED06000831
:1000A000B3010008B3010008B3010008B301000860
:1000B000B3010008B3010008B3010008B301000850
:1000C000B3010008B3010008B3010008B301000840
:1000D000B3010008BD280008B3010008B3010008FF
:1000E000B3010008B3010008B301000800F002F8F2
:1000F00000F042F80AA090E8000C82448344AAF180
:100100000107DA4501D100F037F8AFF2090EBAE87D
:100110000F0013F0010F18BFFB1A43F0010318473B
:100120002C2E00004C2E0000103A24BF78C878C155
:10013000FAD8520724BF30C830C144BF04680C60ED
:10014000704700000023002400250026103A28BF35
:1001500078C1FBD8520728BF30C148BF0B60704739
:10016000642900F0AB80632900F08F810020704784
:100170001FB51FBD10B510BD00F093F91146FFF774
:10018000F7FF02F041FD00F0B1F903B4FFF7F2FF11
:1001900003BC00F0B9F9000009488047094800474E
:1001A000FEE7FEE7FEE7FEE7FEE7FEE7FEE7FEE727
:1001B000FEE7FEE704480549054A064B7047000084
:1001C00039240008ED000008E0010020E0070020CD
:1001D000E0030020E00300200FB41CB5074B06AA83
:1001E0007B4469460090059800F02DF9002069468F
:1001F00000F03CF91CBC5DF814FB00008902000013
:100200002DE9F0410E460446002020622046E168B8
:10021000884730B3252805D0D4E901219047206ACA
:10022000401CF2E7E168204600278847050018D007
:10023000A5F14100192802D820354FF40067324655
:10024000294620462760FFF78BFF40B1012804D0E4
:10025000F61D26F007060836D8E7361DD6E72846ED
:10026000DAE7206ABDE8F08170B50C460546012A40
:1002700005D02878800600D5EA69002302E0012332
:1002800005E05B1C934202D2E05C0028F9D1A8692A
:10029000E618C01AA861286A184428622846AFF3F5
:1002A000008004E0D5E9012114F8010B9047B44225
:1002B000F8D32846AFF3008070BD00002DE9F0416F
:1002C0000646002410687529314616A510D0AFF3F4
:1002D0000080002802DA404213A507E031688A074F
:1002E00001D512A502E0490704D511A5012401E0BA
:1002F000AFF3008000210A2206F1240709E0B0FBD9
:10030000F2FCB0FBF2F302FB1C00303078541846CC
:10031000491C0028F3D123462A463046BDE8F04167
:1003200000F032B8000000002D0000002B0000009B
:10033000200000004FF0000200B513469446964698
:10034000203922BFA0E80C50A0E80C50B1F12001E8
:10035000BFF4F7AF090728BFA0E80C5048BF0CC096
:100360005DF804EB890028BF40F8042B08BF7047F4
:1003700048BF20F8022B11F0804F18BF00F8012B66
:1003800070477047704770472DE9F0470D46994612
:100390009246044600F124080168880604D5E06905
:1003A00021F01001216000E00120A84201DD471B7F
:1003B00000E00027A1697A1902EB0900081AA06180
:1003C0002078C00602D42046AFF30080002608E063
:1003D000D4E901211AF806009047206A401C761CD7
:1003E00020624E45F4DB2078C0060AD52046AFF3E4
:1003F000008006E0D4E9012130209047206A401CAB
:100400002062381EA7F10107F4DC07E0D4E90121DE
:1004100018F805009047206A401C2062281EA5F1AC
:100420000105F3DC2046AFF300802078000602D5FA
:100430000220BDE8F0870120FBE7000001694A1CAB
:1004400002610878704700B58FB0CDE90131002115
:10045000059105497944CDE9031011466846FFF737
:10046000CFFE0FB000BD0000E5FFFFFF0A6802F8F5
:10047000010B0A60704710B5436913B1AFF30080F8
:1004800001E0FFF7F1FE012010BD127800F1240118
:100490000A7000224A700122EDE711684FF0FF3226
:1004A000E9E7754600F02CF8AE460500694653466C
:1004B00020F00700854618B020B5FFF77BFEBDE8A9
:1004C00020404FF000064FF000074FF000084FF0BB
:1004D000000B21F00701AC46ACE8C009ACE8C0094C
:1004E000ACE8C009ACE8C0098D46704710B50446B9
:1004F000AFF300802046BDE81040FFF746BE000085
:10050000004870478001002001491820ABBEFEE77B
:10051000260002007047000070B50446006881683C
:10052000C943C90717D1816821F00101816000F03A
:1005300015FD05460AE000BF00F010FD401B022833
:1005400004D920688068C043C00706D0206880684E
:10055000C043C007F0D0002070BDA06A40F010007A
:10056000A062E06A40F00100E062012070BD00007E
:10057000F8B500260446009600688168C943C9079B
:100580002DD0816841F0010181601648164900684C
:10059000B0FBF1F000E0401E00900028FBD100F01D
:1005A000DDFC054616E000BF00F0D8FC401B022829
:1005B00010D920688068C043C0070BD0A06A40F003
:1005C0001000A062E06A40F00100E06284F824605C
:1005D0000120F8BD20688068C043C007E4D1002036
:1005E000F8BD00003800002040420F00FEE7000088
:1005F00070B50024282002F0E7F90C4D02212846AE
:1006000000F0A2FC50B9502002F0DEF90221284689
:1006100000F09AFC08B1012400E0FF2402212846E2
:1006200000F092FC0028F9D1204670BD000801407E
:100630002DE9F0410024144F01260221384600F034
:1006400083FC0028F9D0282002F0BEF902213846A8
:1006500000F07AFC90B1C4F1070106FA01F02843DA
:10066000C5B20221384600F06FFC0028F9D1641CA5
:10067000E4B2082CE1D32846BDE8F081C4F10700BC
:1006800006FA00F08543ECE70008014010B50020B1
:1006900002F0E0FB0F4C01220221204600F059FC41
:1006A000012000F0FBFA00220221204600F051FC5C
:1006B00044F2506002F088F901220221204600F045
:1006C00048FC142002F080F9BDE81040012002F03F
:1006D000C1BB0000000801407047042000F038BB97
:1006E000082000F035BB102000F032BB202000F0C5
:1006F0002FBB0000F8B50024009490F82420254674
:10070000012A12D0012280F824204A681F23072AD8
:100710000DD20668776B521E02EB820293409F4314
:100720000B6893401F43776319E00220F8BD066809
:100730000D2A0AD2376BD21F02EB820293409F43ED
:100740000B6893401F43376309E0F76A0D3A02EBE9
:10075000820293409F430B6893401F43F7620A68ED
:10076000072306680A2A0AD3F7680A3A02EB42020C
:1007700093409F438B6893401F43F76008E03769BD
:1007800002EB420293409F438B6893401F433761C3
:100790000A68102A01D0112A20D1124B02689A420D
:1007A00017D193681B0219D4936843F40003936034
:1007B0000968102912D10C490C4A0968B1FBF2F101
:1007C00001EB8101490000E0491E00910029FBD1A5
:1007D00004E0816A41F020018162012480F8245004
:1007E0002046F8BD002401403800002040420F00A0
:1007F0000068C06C704700002DE9F0414FF0000721
:1008000004003D467ED0A06A002628B9E66284F83E
:100810002460204600F07EF82046FFF77DFEA16AA6
:10082000C90600D420B1A06A40F01000A06269E0BF
:10083000A16A21F4885141F00201A1626268E16974
:10084000237B0A4347EA43010A43A1684FF48077B8
:10085000B94209D0012907D05FF0000194F814C013
:10086000BCF1010F02D00AE03946F7E7F3B1A36A01
:1008700043F02003A362E36A43F00103E3622368C9
:10088000D3F804C02CF4694C4CEA010CC3F804C042
:1008900021688B68DFF870C003EA0C0313438B6098
:1008A000A168B9420BD0012909D00CE0DFF85CC087
:1008B000A3690CEB43330B4343F40061DFE7218A68
:1008C0000D05A5F580152168CB6A23F470032B4331
:1008D000CB62216889680E4B1940914208D1E662CB
:1008E000A16A21F0020141F00101A162BDE8F0819D
:1008F000A06A20F0020040F01000A062E06A40F020
:100900000100E0620120F1E7FDF7E1FF00E0FFFFF9
:10091000FE0E1FFF30B585B00021009101910291BC
:10092000039100681549884226D11548816941F430
:1009300000718161816901F400710491816941F064
:1009400004018161816901F004010491816941F030
:10095000080181618069012400F0080003250490EA
:1009600069460848CDE9004500F0FEF969460648A9
:10097000CDE9004500F0F8F905B030BD0024014094
:100980000010024000080140000C01402DE9F8432E
:1009900000270D460446009700F0E0FA80462068E4
:1009A0008168C90508D5A06A40F02000A06284F8DB
:1009B00024700120BDE8F8834168C90503D4C06AEA
:1009C00010F4700F2AD0022000F066FB3B49096842
:1009D000B1FBF0F62068036939490B424FEA610127
:1009E0004FEAA1121FD1C3684FEA611C13EA0C0F32
:1009F00019D103690B4225D1C068104222D11420BD
:100A000023E0681C0AD02DB100F0A8FAA0EB080082
:100A1000A84203D920680068800725D520680068AF
:100A20008007EED52DE003690B4202D1C168114267
:100A300006D0026923490A4206D1C068084203D1A0
:100A4000542002E0292000E0FC204643009816E0F4
:100A5000681C11D02DB100F081FAA0EB0800A8426B
:100A60000AD90098B04207D2A06A40F00400A06200
:100A700084F8247003209DE70098401C0090B04249
:100A8000E6D321686FF012000860A06A40F400709D
:100A9000A06220688068C0F3424007280CD1207B08
:100AA00050B9A06A20F48070A062A06AC00403D488
:100AB000A06A40F00100A06200207BE7380000201F
:100AC000244992244992240070B5044690F82400E9
:100AD00001280DD0012084F824002046FFF748FDAE
:100AE00002004FF0000005D084F82400104670BDCD
:100AF000022070BDA16A40F20123994341F4807144
:100B0000A1621F4D23681F49AB4218D10E6816F42D
:100B1000702F14D0A66A46F48016A6620E68760579
:100B200005D5A66A26F4005646F48056A662A66A43
:100B3000F6040AD5E66A26F00606E66206E0A66A2C
:100B400026F48016A6625E68E9E7E06284F8240075
:100B50006FF00200186020688368C3F34243072BDC
:100B600005D1A84208D1096811F4702F04D081681A
:100B700041F480118160B9E7816841F4A001F9E78F
:100B8000002801400424014010B5044690F82400D8
:100B9000012807D0012084F824002046FFF7BCFC80
:100BA00010B107E0022010BDA16A21F4885141F084
:100BB0000101A162002184F8241010BD10B590F845
:100BC00021100022022905D00421816380F8202011
:100BD000012010BD01680B6823F00E030B60016853
:100BE0000B6823F001030B6090F84030C46B0121C7
:100BF00001FA03F3636080F8211080F8202010468A
:100C000010BD000010B590F821100024022903D077
:100C10000421816301243DE001680A6822F00E028C
:100C20000A6001680A6822F001020A601A4A016833
:100C3000914201D1012121E0174A1432914201D1A0
:100C400010211BE0144A2832914201D1891515E088
:100C5000114A3C32914201D189140FE00E4A5032C0
:100C6000914202D14FF4803108E00B4A6432914244
:100C700002D14FF4801101E04FF08071064A083A2A
:100C80005160012180F82110002180F82010416B73
:100C900001B18847204610BD0800024070B50446E7
:100CA00000F05CF90546601C02D00448007804445A
:100CB00000F054F9401BA042FAD370BD2C00002074
:100CC00070B5214D214C042812D0082821D01028BD
:100CD0002CD020280BD11420FFF7E0FF202128463C
:100CE00000F032F9002802D1206AC043206270BDB2
:100CF0001420FFF7D3FF0421284600F025F900282F
:100D0000F5D16069032802D0401C606170BD0020ED
:100D1000FBE71420FFF7C2FF0821284600F014F972
:100D20000028F3D1A069C043A06170BD1420FFF773
:100D3000B5FF1021284600F007F90028F5D1E06939
:100D4000C043E06170BD00000008014000000020C9
:100D5000044910B50A68024202D00860FFF7B0FFEC
:100D600010BD0000140401402DE9F84FDFF8B891E0
:100D7000002409F1040A0AF1040B23460F270BF1A2
:100D8000040EC9E00125A5402A40AA427DD1674E44
:100D9000D1F804C0ACEB0608B44532D014DCBCF189
:100DA000030F3AD009DCBCF1000F2AD0BCF1010FCF
:100DB0001CD0BCF1020F31D11DE0BCF1110F17D0D6
:100DC000BCF1120F2AD119E0B8F5881F19D006DC42
:100DD000B8F5803F15D0B8F5801F1FD111E0B8F5E8
:100DE000001F0ED0B8F5041F18D10AE0CB6815E03B
:100DF000CB681B1D12E0CB6808330FE0CB680C33C7
:100E00000CE08B682BB1012B4FF0080303D0456138
:100E100004E0042302E0056100E00023FF2A01D87A
:100E2000064601E000F104064FEA840501D9A5F168
:100E30002005D6F8008007FA05FC28EA0C0803FA1A
:100E400005F548EA0508C6F800804D68ED0062D552
:100E5000374DAE6946F00106AE61AD6924F0030678
:100E600005F001050095334D06EB050CDCF8085044
:100E7000A607360F07FA06F825EA0805DFF8B88056
:100E8000404503D14FF0000817E044E0DFF8AC80A4
:100E9000404502D14FF001080FE0DFF8A480404543
:100EA00002D14FF0020808E0DFF89880404502D1F7
:100EB0004FF0030801E04FF0040808FA06F848EA8A
:100EC0000508CCF808804D68D9F80060ED034D4660
:100ED00001D5164300E096432E604D68DAF80060B5
:100EE000AD03554601D5164300E096432E604D688C
:100EF000DBF80060ED025D4601D5164300E0964345
:100F00002E604D68DEF80060AD02754601D51643CF
:100F100000E096432E60641C0D682A46E5407FF48D
:100F200031AFBDE8F88F000000040140000011104F
:100F3000001002400000014000080140000C014088
:100F400000100140001401408068084000D00120DA
:100F500070470AB1016170470904FBE701488068E6
:100F6000704700002C00002002488168027811447C
:100F7000816070472C000020074810B5016841F0DF
:100F800010010160032000F075F8012000F006F860
:100F900000F024F8002010BD0020024070B50D4D77
:100FA00004464FF47A712878B1FBF0F00A490968D9
:100FB000B1FBF0F000F0C6FB48B9102C07D20022BC
:100FC0002146501E00F036F800206C6070BD0120F4
:100FD00070BD00002C000020380000200C4808B52F
:100FE000816941F001018161816901F00101009194
:100FF000C16941F08051C161C06900F0805000902A
:101000000448416821F0E06141F00071416008BD91
:101010000010024000000140002809DB00F01F0220
:10102000012191404009800000F1E020C0F800114A
:1010300070470000F0B40E4B1B680C46C3F302234C
:10104000C3F10705042D00D90425191D072901D274
:10105000002300E0DB1E012606FA05F1491E2140AF
:1010600099409E40761E16403143F0BC01F02DBCE5
:101070000CED00E0064900F0070208684FF6FF0398
:10108000184040EA0220034A1043086070470000FD
:101090000CED00E00000FA0510B529A401461DCCB6
:1010A00086B08DE81D002AA02A4C0068049000201C
:1010B000012923D002293AD010291DD16168226864
:1010C000D20119D5C1F38342C9031DF8020009D525
:1010D000616804AAC1F34041515C1F4AB2FBF1F1BF
:1010E000484301E01D4948436168490204D4400077
:1010F0005FF00301B0FBF1F006B010BD226AC2F34D
:101100000121012903D1920701D5C803F4E702297F
:1011100005D1626A920702D549F64040ECE70329FF
:10112000EAD121688903E7D54FF22440E4E700F0D3
:1011300033F96168C1F38131491C4900DAE70000E5
:1011400002030405060708090A0B0C0D0E0F101008
:10115000010200000010024000127A0000093D0068
:101160002DE9F84305460078354CC00754D0E069B6
:101170000026C00008D4E06940F08050E061E069DA
:10118000012600F0805000902E480168C90512D455
:101190000168804641F480710160FFF7DFFE074679
:1011A00005E000BFFFF7DAFEC01B642823D8D8F89B
:1011B0000000C005F6D5206A10F4407021D0A9883F
:1011C00001F4407181421CD0206A1F49012220F4A1
:1011D00040700A6000220A602062C00711D0FFF749
:1011E000BDFE074641F2883808E000BFFFF7B6FEB3
:1011F000C11B414502D90320BDE8F883206A80075E
:10120000F4D5206A696820F44070084320621EB15A
:10121000E06920F08050E0612878800705D560689B
:10122000A96820F44040084360602878C00605D5CE
:101230006068E96820F48000084360600020DBE714
:101240000010024000700040400442422DE9F04787
:101250000F46050061D0434E306800F00700B842E9
:1012600009D2306820F0070038433060306800F061
:101270000700B84251D128683B4C810712D540077E
:1012800003D5606840F4E06060602878000703D50B
:10129000606840F4605060606068A96820F0F00009
:1012A000084360602878C00728D06868012810D0FB
:1012B0002168022810D0890700292EDA616821F000
:1012C000030101436160FFF749FE804641F288391E
:1012D0000DE021688903EFE78901EDE7FFF73EFEA6
:1012E000A0EB0801494502D90320BDE8F0876068FA
:1012F000696800F00C00B0EB810FEFD1306800F0AE
:101300000700B8420BD9306820F00700384330603E
:10131000306800F00700B84201D00120E5E72878E6
:10132000400705D56068E96820F4E0600843606024
:101330002878000706D56068296920F4605040EAE3
:10134000C100606000F038F86168084AC1F3031119
:10135000515CC8400649086006480068FFF71EFE59
:101360000020C2E70020024000100240342F000895
:101370003800002030000020044805490068496812
:10138000044AC1F30221515CC84070473800002074
:1013900000100240442F00080448054900684968CD
:1013A000044AC1F3C221515CC84070473800002094
:1013B00000100240442F000812A185B00FC98DE82B
:1013C0000F0014A0144A006804905168134801F0FB
:1013D0000C03042B10D0082B0ED1C1F38343C90397
:1013E0001DF803000AD5516804AAC1F34041515CBD
:1013F0000A4A5043B0FBF1F005B070470849484332
:10140000FAE7000002030405060708090A0B0C0DA1
:101410000E0F1010010200000010024000127A00AE
:1014200000093D002DE9F84F040070D02078C04D30
:10143000C00749D06868C0F38100012807D06868F8
:10144000C0F38100022809D16868C00306D5286866
:10145000800339D560680028E7D035E06068B0F5D2
:10146000803F0BD010B1B0F5A02F11D0286820F428
:1014700080302860286820F4802002E0286840F44A
:1014800080302860606890B1FFF768FD06460AE08A
:10149000286840F480202860F0E700BFFFF75EFD79
:1014A000801B642873D828688003F7D50CE0FFF709
:1014B00055FD064605E000BFFFF750FD801B642880
:1014C000F0D828688003F7D420789A4E80074FF030
:1014D00001094FF0000839D5686810F00C0F07D0EB
:1014E0006868C0F38100022809D16868C00306D487
:1014F0002868800714D52069012808D110E02069E8
:10150000B0B1C6F80090FFF729FD074605E00AE1F3
:10151000FFF724FDC01B0228C4D828688007F7D530
:101520002868616920F0F80040EAC10028600DE0F9
:10153000C6F80080FFF712FD074604E0FFF70EFD36
:10154000C01B022823D828688007F7D4207800071A
:101550002CD57948A169D9B1C0F80090FFF7FEFCFD
:10156000074604E0FFF7FAFCC01B02280FD8686AA0
:101570008007F7D571484FF4FA510068B0FBF1F0DD
:10158000009000BF0098411E0091FAD20EE080E06A
:10159000C0F80080FFF7E2FC074604E0FFF7DEFC3E
:1015A000C01B022875D8686A8007F7D420784007E6
:1015B00060D5E8690027C00008D4E86940F0805091
:1015C000E861E869012700F0805000905C480168FC
:1015D000C90513D40168834641F480710160FFF7A7
:1015E000BDFC824606E000BFFFF7B8FCA0EB0A0096
:1015F00064284ED8DBF80000C005F5D5E068012866
:101600000AD008B1052813D0286A20F0010028620A
:10161000286A20F0040002E0286A40F001002862F5
:10162000E06841F2883B98B1FFF798FC82460BE0F6
:10163000286A40F004002862EEE700BFFFF78EFC46
:10164000A0EB0A0159455AD8286A8007F6D50CE064
:10165000FFF784FC824605E0FFF780FCA0EB0A015F
:1016600059454CD8286A8007F6D41FB1E86920F0A4
:101670008050E861E06988B36968C1F3810102299B
:1016800044D00228C6F8608004D0FFF767FC044607
:1016900038E034E0FFF762FC074604E0FFF75EFC49
:1016A000C01B02282BD828688001F7D4206AB0F527
:1016B000803F05D16868A16820F400300843686065
:1016C000D4E908010843696821F47411084368608B
:1016D000C6F86090FFF742FC044606E025E000BF34
:1016E000FFF73CFC001B022809D828688001F7D5C9
:1016F0001BE000BFFFF732FC001B022802D90320C9
:10170000BDE8F88F28688001F4D40EE00128F7D0F6
:101710006868226A00F48031914204D1616A00F461
:101720007010884201D00120EAE70020E8E70000BD
:101730000010024000004242800442423800002073
:101740000070004010B5401EB0F1807F01D3012031
:1017500010BD4FF0E02460610F21601701F0B5F873
:101760000020A06107202061002010BD70B590F816
:101770003C20012A26D0012480F83C40022280F837
:101780003D2003685A689D6822F070060A6832435B
:101790005A600D4B02689A4208D0B2F1804F05D0D2
:1017A0000A4B9A4202D00A4B9A4204D1496825F06A
:1017B00080031943916080F83D40002180F83C107F
:1017C000084670BD022070BD002C0140000400409E
:1017D0000008004010B5040003D094F83D0010B19B
:1017E00007E0012010BD002084F83C00204600F0F6
:1017F0001FF8022084F83D00211D206800F01EFE25
:10180000012084F8460084F83E0084F83F0084F804
:10181000400084F8410084F8420084F8430084F8D2
:10182000440084F8450084F83D00002010BD00000D
:1018300008B501680B48B1F1804F0BD00A4A9142BC
:1018400007D1C16941F00401C161C06900F0040021
:10185000009008BDC16941F00101C161C06900F09B
:101860000100F5E7001002400008004090F83D102C
:10187000012901D001207047022180F83D10006845
:101880000B49884208D0B0F1804F05D00949884201
:1018900002D00949884204D1816801F00701062974
:1018A00003D0016841F00101016000207047000091
:1018B000002C0140000400400008004070B50446C0
:1018C00090F83C00012817D0012584F83C500220F4
:1018D00084F83D002068826822F0770222F47F427B
:1018E00082600868502830D00DDC20284DD005DCFF
:1018F00098B310283BD148E0022070BD302844D076
:10190000402834D139E0602828D0702806D0B0F5BE
:10191000805F2CD0B0F5005F29D10AE0CB68D1E917
:101920000121206800F0CDFD2068816841F0770139
:1019300009E0CB68D1E90121206800F0C2FD2068F0
:10194000816841F48041816011E0CA68496820687B
:1019500000F06CFE5021206807E016E0CA68496874
:10196000206800F074FE6021206800F0B4FD84F867
:101970003D50002084F83C0070BDCA68496820686A
:1019800000F054FE40212068EFE72268014610462F
:10199000EBE7000000B585B00021009101910291B4
:1019A000039100680B49884212D10B48816941F0CC
:1019B000080181618069694600F0080004904FF4D5
:1019C000007000900220019003900448FFF7CCF9CA
:1019D00005B000BD0008004000100240000C0140AE
:1019E00070B5044690F83C000D4601280AD001204D
:1019F00084F83C0042B1042A18D0082A2AD00C2AC4
:101A00004DD139E0022070BD206800F06DFD2068E6
:101A1000816941F0080181612068816921F0040138
:101A20008161206881692A69114311E0206800F012
:101A300083FD2068816941F40061816120688169CA
:101A400021F480618161206881692A6941EA02216B
:101A5000816124E0206800F09BFD2068C16941F0AD
:101A60000801C1612068C16921F00401C1612068D9
:101A7000C1692A69114311E0206800F0B5FD2068B2
:101A8000C16941F40061C1612068C16921F48061CC
:101A9000C1612068C1692A6941EA0221C16100204F
:101AA00084F83C0070BD10B5040003D094F83D00EC
:101AB00010B107E0012010BD002084F83C00204652
:101AC00000F01EF8022084F83D00211D206800F07F
:101AD000B5FC012084F8460084F83E0084F83F00FD
:101AE00084F8400084F8410084F8420084F8430000
:101AF00084F8440084F8450084F83D00002010BDBF
:101B00007047000010B50446022249B104290ED0E6
:101B1000082913D094F84100012816D0012010BDE7
:101B200094F83E000128F9D184F83E200FE094F8A3
:101B30003F000128F2D184F83F2008E094F84000EB
:101B40000128EBD184F8402001E084F841200122F3
:101B5000206800F0A9FC0F492068884203D1426C3C
:101B600042F4004242642068884208D0B0F1804FBD
:101B700005D00949884202D00849884204D18168C9
:101B800001F00701062903D0016841F0010101605D
:101B9000002010BD002C014000040040000800405F
:101BA00070477047F8B5026804461068D1685369F9
:101BB00010F00F0F4FF0000553D003F0010601F4B1
:101BC000907737435FD0C20705D0CA0503D5226C92
:101BD00042F001022264420705D5DA0703D0226CE5
:101BE00042F002022264820705D5DA0703D0226C94
:101BF00042F004022264020707D501F020023243BA
:101C000003D0226C42F008022264226C002A34D0F5
:101C1000800604D5880602D5204600F04AFD2068DB
:101C20004069216CC0F38010090700D430B320460E
:101C300000F027FD2068416949061BD5416921F064
:101C400040014161A06BA8B158494163A06BFEF708
:101C5000D9FF002811D0A06B416B01B0BDE8F04066
:101C6000084783060FD58B060DD52046BDE8F84002
:101C700000F01FBD2046FFF794FFF8BD2046FFF798
:101C800090FF2564F8BD266B2023012E52D1C60695
:101C900050D5CE064ED51068506800905069400669
:101CA0002AD5A16B086840680004000CEAD0A68D14
:101CB0008642E7D9E0858869202818D0D06820F4CA
:101CC0008070D0602068416921F001014161206885
:101CD000416921F04001416184F83E30256320686C
:101CE000C16821F01001C160A06BFEF767FFA08DF5
:101CF000E18D401A81B219E0A08DE18D401A81B2C8
:101D0000E08D0028BED00029BCD0D06820F49070AF
:101D1000D0602068426922F00102426184F83E30BE
:101D200025632068C26822F01002C2602046FFF7D7
:101D300037FFF8BD05062BD50D0629D594F83D00D3
:101D40002128F6D1A068B0F5805F01D12069B0B13B
:101D5000206A411C2162216800784860E08C401EA6
:101D60000004000CE084E4D12068C16821F0800107
:101D7000C1602068C16841F04001C160F8BD206ABF
:101D80000088C0F308005060206A801C2062E5E7EC
:101D90004006F3D54806F1D5D168204621F0400130
:101DA000D16084F83D3000F0CEF9F8BD732600080C
:101DB00070B5040004D094F83D00002510B106E091
:101DC000012070BD84F83C50204600F023F8242008
:101DD00084F83D002068C16821F40051C1602046AC
:101DE00000F0C2FC2068016921F490410161206883
:101DF000416921F02A0141612068C16841F4005124
:101E0000C1602564202084F83D0084F83E00002055
:101E100070BD000030B585B0002400940194029498
:101E200003940068184988422CD11848816941F40C
:101E300080418161816901F480410491816941F0AF
:101E4000040181618069124D00F0040004904FF498
:101E500000700090022001900320039069462846FC
:101E6000FEF782FF2815CDE9000469462846029452
:101E7000FEF77AFF002202212520FFF7DBF825205C
:101E8000FFF7CAF805B030BD00380140001002402D
:101E90000008014090F83E30202B0ED159B152B1CC
:101EA00090F83C30012B08D0012380F83C3000230F
:101EB000036300F0B5BC01207047022070470000AA
:101EC0002DE9F04F69496A4C08468A78806A8BB0E0
:101ED0000D2A03D0401C8862225496E0225C212AFD
:101EE0007ED0312A7DD0624840783038322A79D08D
:101EF00033224A70A27800EB8000303A02EB4000B7
:101F00005B4A28321060E3782079303B03EB83038F
:101F1000303800EB430002F10C0318606079A579BA
:101F2000303800EB8000303D05EB40005060E57933
:101F3000207A303D05EB8505303800EB45005860D0
:101F4000607AA57A303800EB8000303D05EB400028
:101F50009060E27A207B303A02EB8202303800EB6C
:101F6000420098604149486A00F028FD0190C86924
:101F700000F024FD0090886900F020FD0B690A2222
:101F800093FBF2F593FBF2FE02FB153ACB684F6828
:101F900093FBF2F593FBF2F902FB153B8B68D1F84A
:101FA000148093FBF2F502FB153693FBF2F597FBD9
:101FB000F2F302FB137397FBF2F2DDE9007CCDE94B
:101FC0000807CDF828C0CDF81C80087829A1CDE9F4
:101FD00005A08DE8604A26481230FEF7FDF802E0C1
:101FE0001DE01EE020E02249642312311422A1F1F9
:101FF000560000F04FF8002001462154401C1228E2
:10200000FBD31A494FF0FF3088620BB01749BDE887
:10201000F04F17480122891C4438FFF73BBFCA70B4
:10202000A0E7312048709DE732224A7048618869F4
:1020300000F0C4FCA278904202D08869C043886155
:10204000C86900F0BBFCE278904202D0C869C04386
:10205000C861486A00F0B2FC2279904282D0086AD6
:1020600008B94FF0FF3008627CE700000000002054
:1020700040010020256425642564256425642564C9
:102080002564256425632F25642563256325632046
:102090000A0000002DE9F843044690F83D001F4671
:1020A00016460D4620284CD1C5B1BEB194F83C006F
:1020B000012846D0012084F83C004FF00008C4F805
:1020C0004080212084F83D00FEF748FFA684814629
:1020D000E684A068B0F5805F03D004E00120BDE88D
:1020E000F883206928B12E465FF0000584F83C8013
:1020F0000EE00026FAE78021204600F0ACFBA0B9F4
:10210000AEB116F8010B21684860E08C401EE084F7
:10211000E08C4B464FF0000200970028EBD14FF0C7
:102120004001204600F097FB30B10320D7E735F897
:10213000020BC0F30800E6E7202084F83D000020F1
:10214000CDE70220CBE77047FEE70000FEB5002494
:102150001648009401941449029401608915816025
:10216000012505730475022606614FF46021446061
:10217000C161FEF741FB08B172B6FEE7CDE900454B
:1021800069460A480294FEF7B5FA08B172B6FEE74E
:102190000820CDE9000669460448FEF7ABFA00289E
:1021A00001D072B6FEE7FEBD002401403C000020D5
:1021B0002DE9F04385B000243E4800940194029438
:1021C0000394816941F010018161816901F010017E
:1021D0000491816941F004018161816901F0040188
:1021E0000491816941F0080181618069DFF8C8804C
:1021F00000F0080041F602150490002229464046EE
:10220000FEF7A7FEDFF8B4904DF2E0170022394642
:102210004846FEF79EFE4FF40040CDE900046946B3
:1022200027480294FEF7A0FD00950226012503969B
:10223000CDE9015469464046FEF796FD3C200090EA
:102240002048CDE9010569464046FEF78DFD00971F
:102250000396CDE9015469464846FEF785FD1820EE
:10226000CDE90004694648460294FEF77DFD002250
:1022700003210820FEF7DEFE0820FEF7CDFE002237
:1022800003210920FEF7D6FE0920FEF7C5FE002235
:1022900003210A20FEF7CEFE0A20FEF7BDFE002233
:1022A00003211720FEF7C6FE1720FEF7B5FE05B086
:1022B000BDE8F0830010024000080140000C01401E
:1022C000001001400000211010B586B0002416480F
:1022D000009401940294039404944FF08041059477
:1022E00001600721C0E901144FF6FF71C0E9031432
:1022F0008461FFF76FFA08B172B6FEE74FF48050C1
:10230000009069460848FFF7D9FA08B172B6FEE7AF
:10231000049404A904480594FFF728FA002801D082
:1023200072B6FEE706B010BD6C00002010B58EB08E
:1023300000240794089409940A940B941C2168467D
:102340000C94FDF7F7FF1E481C4901600F21C0E9FE
:1023500001146321C0E903148461FFF73BFA08B15B
:1023600072B6FEE74FF48050079007A91448FFF7B4
:10237000A5FA08B172B6FEE71148FFF794FB08B161
:1023800072B6FEE70B940BA90D480C94FFF7EEF91B
:1023900008B172B6FEE76020CDE9000402940C2279
:1023A000694607480494FFF71BFB08B172B6FEE7C5
:1023B0000348FFF7EFFA0EB010BD00000008004020
:1023C000B4000020FEE7FEE770477047FEF7CCBD83
:1023D00030B593B028216846FDF7ACFF14210AA858
:1023E000FDF7A8FF002401200F940225049000951A
:1023F0001020119405901094129407946846FFF7EA
:1024000011F808B172B6FEE70F20CDE90A040C946A
:102410000D9400210AA80E94FEF718FF08B172B6B9
:10242000FEE70FA80F951194FEF79AFE002801D041
:1024300072B6FEE713B030BD70470000F0B5026819
:10244000164B174C174D4FF08047984205D0B842B5
:1024500003D0A04201D0A84203D122F070064A68FE
:102460003243984205D0B84203D0A04201D0A842DE
:1024700003D122F44074CA6822434C6922F08002DE
:10248000224302608A68C2620A688262984201D16D
:102490000969016301214161F0BD0000002C014088
:1024A000000400400008004010B501F01F030121A6
:1024B000046A99408C430462016A9A4011430162A4
:1024C00010BD10B5846842EA032224F47F440A4315
:1024D0002243826010BD826822F070020A4342F0FB
:1024E000070181607047000030B5026A22F00102E6
:1024F0000262026A4368846924F073050C682C4305
:1025000022F002058A682A430A4DA8420BD122F024
:102510000805CA6823F440732A434D6922F0040277
:102520001D438B692B4343608461496841630262A8
:1025300030BD0000002C014030B5026A22F01002CC
:102540000262026A436884690D6824F4E64444EA3E
:1025500005248D6822F0200242EA05120B4DA842A4
:102560000ED1CD6822F0800242EA05124D6923F4B3
:10257000406343EA85038D6922F0400243EA850304
:102580004360846149688163026230BD002C014070
:1025900030B5026A22F480720262036A4268C4693A
:1025A00023F4007324F073050C682C438D6843EA10
:1025B00005230C4DA8420ED1CD6823F4006343EAF5
:1025C00005234D6922F4405242EA05128D6923F435
:1025D000806342EA05124260C4614968C1630362D4
:1025E00030BD0000002C014030B5026A22F4805258
:1025F0000262046A4268C3690D6823F4E64343EA51
:1026000005238D6824F4005444EA0534064DA8429D
:1026100004D14D6922F4804242EA85124260C361CE
:1026200049680164046230BD002C014010B5036AA2
:10263000046A24F001040462846924F0F00444EA8A
:10264000021423F00A020A438461026210BD10B52D
:10265000036A23F0100303628369046A23F470435E
:1026600043EA023224F0A00343EA011182610162CD
:1026700010BD10B5406A0021C185C184FFF791FAF1
:1026800010BD0168CA6822F49072CA6001684A6984
:1026900022F001024A61016B012904D10168CA6874
:1026A00022F01002CA60202180F83E100021016350
:1026B000704708B590F83E10222901D0022008BDCD
:1026C00082684FF480539A4201D1016921B1816A35
:1026D0009A421BD04AB10AE00268816A5268C2F38A
:1026E00008020A80816A891C08E0026972B10268E6
:1026F000526802F07F020A70816A491C8162C18DB2
:10270000491E0904090CC18503D019E0026852680A
:10271000F1E70168CA6822F02002CA600168CA684D
:1027200022F48072CA6001684A6922F001024A619B
:10273000202180F83E10016B012903D0FFF7C0FB78
:10274000002008BD002101630168CA6822F0100260
:10275000CA6001680A68D20602D50A684968009111
:10276000818DFFF71DFAEBE770B50446006801693B
:10277000E26821F44051114301612169A0680843D6
:10278000616908432168CA6841F20C639A430243B5
:10279000CA6020684169A26921F440711143416116
:1027A0001E492068884202D1FEF7F6FD01E0FEF7DF
:1027B000E3FD00EBC00101EB0012606864218000C2
:1027C000B2FBF0F3B3FBF1F36FF018067343B2FB07
:1027D000F0F5B2FBF0F605EB8305322303EB0515AC
:1027E000B5FBF1F5B6FBF1F605F0F00505EB0615C6
:1027F000B2FBF0F6B2FBF0F0B0FBF1F06FF01802B4
:10280000504306EB800003EB0010B0FBF1F02168B1
:1028100000F00F002844886070BD000000380140BF
:1028200081628285C28500210164222280F83E20D7
:1028300080F83C100168CA6842F48072CA6001687E
:102840004A6942F001024A610068C16841F0200112
:10285000C160002070472DE9F041984617460E46AA
:102860000446069D1DE0681C1BD02DB1FEF776FBCB
:10287000A0EB0800A84214D92068C16821F4D071E7
:10288000C1602068416921F001014161202084F884
:102890003D0084F83E00002084F83C000320BDE8A1
:1028A000F0812068006836EA000004D00020B842B9
:1028B000D9D00020F3E70120F9E700000148FFF735
:1028C00071B90000FC000020FEE70907090E00288E
:1028D00004DB00F1E02080F80014704700F00F00E6
:1028E00000F1E02080F8141D7047000070B5304CF6
:1028F0003048002661690068012918D0022918D0E3
:10290000032918D00664207E2B4DC043C2B24FF479
:1029100080712846FEF71DFB227F80212846FEF7A6
:1029200018FB206A002842D0606A38B11AE04521BD
:1029300002E0542100E063210164E4E70122202148
:102940002846FEF706FB002240212846FEF701FB41
:1029500008212846FEF7F8FA10B9206A0028F7D1B6
:10296000606A70B1002220212846FEF7F2FA0122A7
:1029700040212846FEF7EDFA10212846FEF7E4FA3A
:1029800088B1206A10B1606AC043606200222021D1
:1029900028462662FEF7DDFA2846BDE87040002290
:1029A0004021FEF7D6BA206A0028E5D1EEE770BDD7
:1029B00000000020B4000020000C014008B13120CC
:1029C0007047302070470000044900220B685A62AB
:1029D00009684A6A8242FCD3704700006C000020FC
:1029E0002DE9F041FDF752FEFDF702FE002815D05B
:1029F000FDF71EFE0546FDF71BFE0746FDF718FE18
:102A00000446FDF715FE0646FDF712FEE9192144BE
:102A10003144814202D10248C0E90145BDE8F0815C
:102A20000000002070B5082000F0FEF92048FEF7F5
:102A30004BF84FF47A7529461D48FDF7A7FF1C484F
:102A4000FDF7D6FE642148431A4CC11700EB115024
:102A5000001320611648FEF797F86420FEF71EF970
:102A6000002000F0E1F91248FEF72EF82946104840
:102A7000FDF78CFF0E48FDF7BBFE64214843C117EC
:102A800000EB11506421A1EB2030E0600848FEF714
:102A90007BF86420FEF702F94FF400410648FEF788
:102AA00053FA08B1302000E03120207070BD0000E2
:102AB0003C000020000000200010014070B5012201
:102AC000084D0646140321462846FEF742FA3046D2
:102AD00000F013F821462846BDE870400022FEF7BA
:102AE00038BA00000008014010B5012000F005F8D8
:102AF000BDE810400120FEF7D1B810B5044600092A
:102B000000F052F800F008F8204600F04DF8BDE85B
:102B1000104000F001B8000070B50122094DD40248
:102B200021462846FEF715FA0120FEF7B7F80022E5
:102B300021462846FEF70DFABDE870400120FEF759
:102B4000ADB800000008014010B5002000F02CF8DE
:102B500000224FF480510F48FEF7FBF9032000F0EC
:102B600023F8FFF7D9FFFFF7D7FFFFF7D5FF0220C4
:102B700000F01AF8FFF7D0FF2820FFF7BEFF0C2067
:102B8000FFF7BBFF0620FFF7B8FFBDE810400120AC
:102B9000FFF7B3BF00080140012803D0BF31C8B21E
:102BA000FFF7ABBF7F31FAE770B5044600F00102D2
:102BB0004FF480710C48FEF7CCF90C4DC4F3400281
:102BC0004FF400412846FEF7C4F9C4F380024FF4E5
:102BD00080412846FEF7BDF9C4F3C002A914284677
:102BE000BDE87040FEF7B5B900080140000C014097
:102BF00010B5044603E000BFFFF760FF641C2078B7
:102C00000028F9D110BD000090B0FEF7B5F9FFF72C
:102C1000DFFBFFF7CDFAFFF757FB3E483C490C229C
:102C200001604FF41651416000218160C160C0E92C
:102C300004128161C161FFF7BBF808B172B6FEE70B
:102C4000FFF784FAFFF772FB32489038FEF70EFE6A
:102C5000FFF77AFF03210120FFF79EFF2EA0FFF769
:102C6000C7FF02210846FFF797FF2FA0FFF7C0FF1D
:102C70004FF4FA60FEF712F8FFF736FF012108461D
:102C8000FFF78AFFFF2400942346DF222AA105A82C
:102C90000194FDF7A1FA05A8FFF7AAFF032102207E
:102CA000FFF77AFF2520CDE90140CDE903400090F0
:102CB000FF23432225A10AA8FDF78EFA0AA8FFF7F1
:102CC00097FF14480C214838FEF71CFF01222549C4
:102CD0001048FFF7DFF864230D2223A10D48FFF70A
:102CE000D9F9204C4FF49665A41E00BFFFF778FE7B
:102CF000FFF798FE00F040F86078332801D100F02B
:102D0000BDF8FFF7F3FD2846FDF7C8FFEEE700002A
:102D100000380140FC000020534D415254204741EF
:102D20005244454E000000004855592D484945552C
:102D30002D54524F4E4700005425632025634149CE
:102D4000522563534F494C25634153002563256346
:102D5000202025632563202025632025632020254E
:102D6000630000000200002048656C6C6F20576F04
:102D7000726C64210000000070B501210220FFF791
:102D80000BFF284C0A25606890FBF5F03030C0B28C
:102D9000FFF794FE606890FBF5F105FB1100303001
:102DA000C0B2FFF78BFE05210220FFF7F5FEA068F9
:102DB00090FBF5F03030C0B2FFF780FEA06890FBCA
:102DC000F5F105FB11003030C0B2FFF777FE0921A5
:102DD0000220FFF7E1FEE06890FBF5F03030C0B272
:102DE000FFF76CFEE06890FBF5F105FB1100303059
:102DF000C0B2FFF763FE0E210220FFF7CDFE20696F
:102E000090FBF5F03030C0B2FFF758FE206990FB20
:102E1000F5F105FB1100BDE870403030C0B2FFF79E
:102E20004DBE0000000000200EB500210091019170
:102E3000029108B1082000900120019069460448E1
:102E4000FDF758FC002801D072B6FEE70EBD000069
:102E50003C0000201FB50021019102910391022145
:102E6000054A009120B169461046FDF77DFF1FBD60
:102E7000012003910190F6E700080140F0B52B4FC7
:102E80002B48394602463B68D0F810C0546A8D681A
:102E900052684FF0FF3163450ADA954208DA03467B
:102EA0001B6A04B9DB430362836903B90B46836180
:102EB0001E4B1F4E0C3BD3F800E03678E64502DC93
:102EC0000A3D954201DD302E02D0312E0AD00EE0AF
:102ED000002C046A00D0E4430462846904B1E44332
:102EE000846104E0002C046A00D1E44304625D685C
:102EF000C468A54203DD45690DB9032545617D68B8
:102F0000A54203DA44690CB1002444619B689342F2
:102F100003DDC46904B90C46C4615B1D934203DA46
:102F2000C16901B1C943C161F0BD00007401002055
:102F30000000002000000000000000000102030467
:102F40000607080900000000010203046C2F0008B6
:102F5000000000203C00000028010008A82F000805
:102F60003C000020A40700004401000830310000AC
:102F70000000000000000000000000000000000051
:102F80000000000000000000000000000000000041
:102F900000000000FFFFFFFF010000001000000024
:082FA000000000000024F40011
:04000005080000ED02
:00000001FF
